:020000040000FA
:10061000F00A0020D506000069100000C90900009A
:1006200000000000000000000000000000000000CA
:10063000000000000000000000000000591300004E
:1006400000000000000000004D110000EB0600005B
:10065000B3070000ED060000BD070000ED06000036
:10066000ED060000ED060000ED06000000000000B1
:100670000000000000000000ED0600000000000087
:10068000ED06000000000000000000000000000077
:10069000000000000000000000000000000000005A
:1006A000000000000000000000000000000000004A
:1006B000000000000000000000000000000000003A
:1006C0000348854600F05CF800480047C11D000063
:1006D000F00A0020064880F308880648804706484C
:1006E0000047FEE7FEE7FEE7FEE7FEE7FEE7000065
:1006F000F00A0020B9140000C106000030B50B4616
:10070000014600202022012409E00D46D5409D42EB
:1007100005D31D469540491B254695404019154671
:10072000521E002DF1DC30BD03460B439B0703D066
:1007300009E008C9121F08C0042AFAD203E00B78A6
:100740000370401C491C521EF9D27047D2B201E01E
:100750000270401C491EFBD270470022F6E710B51C
:1007600013460A4604461946FFF7F0FF204610BD1F
:10077000421C0178401C0029FBD1801A7047000000
:10078000064C0125064E05E0E36807CC2B430C3CE4
:1007900098471034B442F7D3FFF796FFBC300000FF
:1007A000EC30000003B40148019001BD01160020A7
:1007B000704710B501F00AFE10BD000010B50548E5
:1007C00000F026FB02F0F6FA0520C00300F0B4FEAC
:1007D00010BD0000351500007CB51A4C05462246B8
:1007E0006946083A204601F0FBFF68460178002977
:1007F00012D002290FD920786A468007800F107125
:1008000061785171202910D3A078294602F06EFA40
:10081000284601F06FFE7CBD0A48012101700021CD
:1008200041700220694608707CBD2846019901F09C
:10083000F5FE68460078A11C801EC2B2284601F071
:1008400000FF7CBDCC000020024AD1680143D1608A
:100850007047000000F0014070B5184C0025218859
:10086000491C8AB22280A1684B78002B19D04B8991
:10087000934216D1498828225143081801F09AFE64
:10088000A0680178022901D202210170C8B20C4986
:100890004843C82101F0B0FEA0684570808800F090
:1008A0005DFD60684179002907D0C18822889142A6
:1008B00003D100F0ABF86068457170BDB000002056
:1008C000E204000072B602480178491C01707047CA
:1008D000040000201CB50446694601A801F018FC7C
:1008E0002046009A019900F032FC1CBD04490878AA
:1008F000401E0006000E087001D1087062B67047F5
:100900000400002010B5054B1A6840000324844001
:10091000A24381401143196010BD000000F0014066
:10092000F8B507460E4600240D880820FFF78CFF17
:100930003079C00601D53D6100E07D6107490122A3
:100940001046A040284205D03079A3004007400F50
:100950005B181864641C102CF2D3F8BD00F0014041
:100960007047000013B56A46127813200240094808
:1009700002706A4654784470002C03D02246801CD2
:10098000FFF7D2FE0349A41C0846E2B2083801F082
:10099000E1FA1CBDCC0000200D2070470848084932
:1009A00000782931020930320007000F8A700928C7
:1009B00001D8303000E03730C87001482930704726
:1009C0001800002000207047FEE770B516460D465F
:1009D000044600F0D9FD224629463046FFF7E2FEE4
:1009E00000F0C2FD70BD1CB5012000F05BFD0020D1
:1009F0006A4610800621D18040219180508068464F
:100A000000F0CAFB00F042FD1CBD0000F8B5002557
:100A10000646154F28460121C2084307B25C5B0F0A
:100A20000C469C40224202D078556D1CEDB2401C11
:100A3000C0B22528F0D30C4F0024253FE008315CDC
:100A40006207520F01209040014201D03C5506E060
:100A500029462046FFF752FE0348405C3855641C87
:100A6000E4B2252CEAD3F8BDA704002070477CB57A
:100A7000044600788507A079AD0F0C287DD009DCED
:100A8000030000F08BFD0B1BF6241B2D1B44D265CD
:100A9000DEA11B002146093118286FD008DC102880
:100AA00077D012286CD0132810D0162806D1A2E0D7
:100AB0001B2866D01E2809D05228F3D0410605D441
:100AC000062300220146284600F084FD7CBD217AE1
:100AD000E3790A0201461A43284600F0D7FD7CBD9F
:100AE000227AE179120289188AB269460A80A37AC9
:100AF000617A1B02C9188BB269464B809A4201D9B0
:100B00000123DFE70146284600F026FE7CBD227A5D
:100B1000E179120289188AB269460A80A37A617A59
:100B20001B02C9188BB269464B809A42E8D8267BD3
:100B3000E17A36028919667BA47B89B224023419D2
:100B40000091A4B201460194284600F0CEFD7CBD80
:100B5000227AE179120289188AB26E463280A37A2B
:100B6000617A1B02C9188BB27380E17A247B24025C
:100B7000091989B2B1809A4204E02EE03FE008E012
:100B800041E093E0BCD800910146284600F0D2FE37
:100B90007CBD227AE179120289188AB26E463280CF
:100BA000A37A617A1B02C9188BB27380E17A247B25
:100BB0002402091989B2B1809A42A1D80091014654
:100BC000284600F033FE7CBD227AE17912028918B2
:100BD00089B22A4602F03CF87CBD227AE179120201
:100BE0008918A37A627A1B02D21893B289B22A4674
:100BF00002F02CF87CBD204601F0D9FF7CBD2046D8
:100C000001F097FF7CBDE278A3781202D21E9A18F9
:100C1000D6B2237AE2791B02D2180B46014692B271
:100C20002846009601F0E6FF7CBD207A0102E079BB
:100C30000843A17A0A02617A114301F005FFFF21FE
:100C400030E020790428EFD160790028ECD1207BB6
:100C5000E57A00020543284602F0DAF8E079152823
:100C600016D1607BD92805D0BD2809D0FB280CD02F
:100C70000EE011E0A07BD9280AD10121284612E01C
:100C8000A07B1D2804D10021F8E7A07B7B2801D0A0
:100C9000FE21F3E70221F1E7E079062801D00828D8
:100CA000C2D18021002000F0DBFF7CBD227AE079F8
:100CB00012028018A27880B2D21ED2B200F0CEFF0B
:100CC0007CBD0000004870475C30000070B50C46E9
:100CD0000546FFF788FE01F04FF8044B00221A701A
:100CE0002146284601F04AFA70BD00004C00002061
:100CF000FEB5044641A00068019041A00068029042
:100D000020790025002800D040253E4E002070703C
:100D1000206814214843B06101F04CFC60796946B9
:100D200028430870A079801D48700020009901F0C8
:100D300008FCA279002A03D00020A16801F014FC6D
:100D40006079022828D00420284369460870E07999
:100D5000801D48700120009901F0F3FBE279002A20
:100D600003D00120E16801F0FFFB6079012813D175
:100D70002046103001F017FC60796A462843107055
:100D80000C215170A17D002902D0802108431070F0
:100D90000020009901F0D5FB01A801F0FDFB02A89D
:100DA00001F0C8FB01F018F901F0E2FBC821164878
:100DB00001F022FC154801F08CFC502001F006FCEB
:100DC000FF2001F003F92520307301F0D8FB032048
:100DD00030706079022803D001207073112002E086
:100DE00002207073122001F001FCB078002802D0BC
:100DF00001F05CFCFEBD01F0CBFCFEBD555555007D
:100E0000D6BE898E4C0000201027000000E20400AE
:100E1000F0B58C4C0746207885B0032802D001201D
:100E200005B0F0BD02A801F0CBFA6846007A410691
:100E3000890F7DD06021084001F0C8F8E0790025D5
:100E400014282AD8E078012827D06846007A40067E
:100E50006ED5684601F048F9E078002801D0401EC0
:100E6000E0706078784E002824D001F03FFC68469E
:100E7000007800077ED5E079401CE071012000F089
:100E800043FF72494843C82101F0B6FBA08A2821DC
:100E90004843616A081A801E92E0E5716570E5704A
:100EA00001F08EFB01F022FC0020FFF7DFFD01F0D6
:100EB00035FFB4E76846007840070AD5002103AB48
:100EC000614A084601F0A0F830780007000F0528B5
:100ED00009D0207B401CC0B22073217A002952D057
:100EE0002820207351E001206070694608714D711F
:100EF0000020019901F092FB0120019901F08EFB85
:100F0000132001F073FB524801F0E3FB4E48203000
:100F1000C078C006C00EE073A0734B48123001F0D9
:100F20003BFB49480E3001F005FB707D474900E06E
:100F300086E04843C82101F05FFB707D01F08EFC24
:100F4000B07D2821401C484301F034FB3E481E3050
:100F5000FFF75CFD3C48A17B8C30405C01F00FFB4F
:100F6000307E2821484360620120FFF77FFDE57154
:100F7000E57000E019E0344800F028FEAA20A071D6
:100F8000FF2060715CE0282801D325202073C0B2C7
:100F900001F0F5FA207B252802D001F087FB4FE015
:100FA00001F008FC01F0A2FB45E0E571002000F033
:100FB000ABFE26494843C82101F01EFB606A283871
:100FC00001F0F8FA68460078810703D5C007C00F22
:100FD00001F030FC68460078400714D503AB1A4A8C
:100FE0000021012001F010F8307808210840A0719C
:100FF0006179884201D1401CA07160716846017B13
:10100000114800F0B3F968460078810703D5C0079E
:10101000C00FFFF7E1FB606AFFF71EFCA07BE17BDE
:101020004018C0B22521FFF769FB0748A1738C3037
:10103000405C01F0A4FA002F02D000210846B84716
:101040000020EDE64C000020F6030020E204000042
:1010500000E2040010B503482821406AFFF74EFB68
:1010600080B210BD4C000020FEE70000014908607E
:101070007047000000E100E001218140014801606B
:101080007047000080E200E070B50C4604291CD3D4
:1010900000210A4604E0835C5918521CC9B2D2B23E
:1010A000A242F8D3FF2901D0022070BD4178027816
:1010B00009020A431E4D211F002A04D02B889A42A0
:1010C00019D0012070BD082C01D2032070BD01226F
:1010D0002A80427903791202134301226B80920322
:1010E000AA60A980C9B2001D00F03AFAA8680019E8
:1010F000001FA86019E05B1C2B80C9B2001DAA6804
:1011000000F02EFAA8680019001FA860A88800192E
:10111000001F80B2A88069881031884205D3002062
:10112000288000F007F8052070BD002070BD000089
:1011300088000020BFF34F8F03490248C860BFF307
:101140004F8FFEE70400FA0500ED00E070470B4604
:1011500020329109FF2210B55843F5325043FFF772
:10116000CDFA10BD1FB502246B461C730A215973BA
:10117000062119700021597005229A70D970012238
:101180001A715A719C71D9711872000A58721946F5
:101190000398FFF7E7FB1FBD70B50446FF20013041
:1011A000FFF752FB094900228A60238860880725DF
:1011B0000343A088284303430B60E0884861CA6268
:1011C00001208861C861086170BD000000C0004056
:1011D000F8B5194C1F2A02D800F030F8F8BD164DAA
:1011E000603D6A600123AB602060686A0128FCD121
:1011F00020686B461870FF2618E01346202A00D995
:101200002023002002E02660401C80B29842FAD3DE
:10121000686A9842FCD1002004E02768401C0F70E7
:1012200080B2491C9842F8D3D01A82B2002AE4D185
:101230000020A860F8BD000060C0004030B5104C30
:101240000F4B603C62600125A56018600020FF25FF
:1012500002E01D60401C80B29042FAD3501C656AC7
:101260008542FCD11868002004E01D68401C0D7008
:1012700080B2491C9042F8D30020A06030BD00002D
:1012800060C00040F8B51C4B1F2A02D800F036F8A9
:10129000F8BD194D603D6A600124AC601860686A51
:1012A0000128FCD118686C4620701FE01446202AE3
:1012B00000D92024002004E00E781E60401C80B27B
:1012C000491CA042F8D3686AA042FCD100201E68E5
:1012D0006F463E701E683E701E683E701E683E700F
:1012E000401C80B20828F2D3101B82B2002ADDD144
:1012F0000020A860F8BD000060C0004030B50B4B76
:101300000A4C603B5A6001259D602060002004E08B
:101310000D782560401C80B2491C9042F8D3521CC5
:10132000586A9042FCD10020986030BD60C00040F7
:1013300010B5084A0124074B603A54609460186065
:101340001960506A0228FCD1186818680021C0B2E0
:10135000916010BD60C000407047000028214843E4
:1013600001494862704700004C000020F8B504466F
:1013700000780F4686070020B60F0090222905D975
:1013800000F0B6FC044600788607B60F2078850783
:10139000AD0FFFF7E5FA012D13D0032D12D0022D6A
:1013A0000FD1627921791202A079891806294AD0D1
:1013B00004294FD0052904D1132850D00020FFF76D
:1013C000D1FEF8BDA078030000F0E8F8160D111F5B
:1013D000283A3A3A0C2D3A3A3A323A3A370C0C3A21
:1013E0003A240C3AEDE7E01C01F034FBF8BD31463D
:1013F000204601F049FA617A207A090240186946CC
:101400000880E01C01F058FBF8BD3146204601F091
:10141000E7FAF8BDE01C01F099FAF8BD3146204624
:1014200001F058FAF8BD3146204601F075FAF8BDD2
:101430003146204601F0EEFAF8BD01F027FAF8BD7A
:1014400001F0D0FAF8BD0128FCD13146204601F068
:10145000A7FAF8BD39462046FFF709FBF8BDA07A88
:10146000002802D1E07A002801D0812000E080200D
:10147000FFF7FCFAF8BD000003480169042211439C
:10148000016130BF7047000000ED00E0014901201C
:10149000C863704700F0014001490020C8637047ED
:1014A00000F00140034A916BFE2319400143916310
:1014B0007047000000F001400648082101600C213F
:1014C00001604168C906FCD50D2101600249012077
:1014D000C86270470070004000F0014010B504463B
:1014E0002020FFF7B1F901210520FFF70BFA0121B8
:1014F0000620FFF707FA0C4A04235361022090618B
:1015000021460A48FFF7FAF881B209488022C260F2
:101510000160090A41600021C1600321C16001210D
:101520008160416010BD000040F001407C31250029
:10153000004000407047000001490860704700000B
:101540000080004010B504460120C002FFF77CF97E
:10155000024804600321816010BD0000008000404B
:1015600010B5FFF732FA10BD10B50648082101602A
:101570000C2101604168C906FCD50D210160FFF70F
:10158000B5F910BD0070004010B5FFF79BF9024996
:101590000C20086010BD00000070004030B474469C
:1015A000641E2578641CAB4200D21D46635D5B005F
:1015B000E31830BC184702E008C8121F08C1002A0F
:1015C000FAD170477047002001E001C1121F002AC4
:1015D000FBD170477FB50AA470CC80070194800FBF
:1015E000039602956C462070092060706172A272A9
:1015F000100AE072237301A9009800F072F87FBD11
:10160000050004000100000000000000FFB581B0EB
:101610001E460D460D240027FFF7BEF9B0422FD914
:1016200030460A2148431749174B0A5A9A4223D198
:101630004118487AFF281FD14888039A90421BD846
:1016400028554A88641CE0B2120A2A54401CC4B2CD
:1016500000200A1812792A55641C401CC0B2E4B25A
:101660000528F6D3019801994078C01D4870287864
:10167000C01D761C2870F6B27F1CFFB2022FCBD3A0
:1016800005B0F0BD1C2E0000032800003EB5144636
:101690000DA106C90E4D0192009129786A46091FD5
:1016A0005171091291718007800F107207205072DA
:1016B0006946029800F015F806490C802878001F4A
:1016C000844200DD08803EBD0300040003F70000F3
:1016D000800000208200002010B50A23FFF77AFF67
:1016E00010BD10B5FFF73EF910BDFFB587B01E461F
:1016F0006F46109B119A05463871092078710520B4
:101700000C463872002179720420B872F972601C9C
:10171000387301207873B973F8730520C0023974E7
:10172000834213D105A8009006AB31460998FFF714
:1017300049F900280AD06946088B4873888AC8731B
:1017400002A90198FFF7CDFF0BB0F0BD2146284656
:10175000099AFFF7C1FFF7E7FFB587B0079817466B
:101760008007800F6A4610700A2050700020507168
:1017700006211171D071042191710521117201218D
:1017800051721E46D0720446134D1AE020460A21BB
:10179000484341194988B94211D3B1420FD80A21AF
:1017A0004C43611989786A469172285A1073000A6D
:1017B000507301A90098FFF794FF0BB0F0BD641CB3
:1017C000E4B2FFF7E9F8A042E0D83A460899079852
:1017D000FFF782FFF1E700001C2E0000F0B589B092
:1017E0000E4607461D461C2101A80E9CFEF7B5FFBC
:1017F000B807800F69460870601D4870601C08714A
:10180000000A4871042088710020C871761C0E728D
:1018100001A904E02A5C0B18401C5A71C0B2A04216
:10182000F8D30098FFF75DFF09B0F0BD38B5052487
:10183000049BE402A34201D1012A09D01025A3424E
:1018400009D1102A07D815220A4B102100950BE068
:1018500000F012F838BDA34209D1162A07D8054B6B
:10186000192230331621009500F036F838BDFFF705
:1018700033FF38BD9E2E000030B589B015490122D6
:101880000A7000216C46217161710423A371E1711A
:101890001123237206236372A272E17223736173B0
:1018A000A1731825E5730722227461740F22A274B4
:1018B000E1740A232375182161750E2580072571AF
:1018C000800F12212070617001A90098FFF709FFB5
:1018D00009B030BD10000020F0B589B08446002466
:1018E00068460E9D0471447104268671C4711126E8
:1018F00006722E1D46728172C472027344730A20EE
:1019000001AF002105E05A5C3A54401C491CC0B2AA
:10191000C9B2A942F7D3011F6A461171614689070E
:10192000890F1170507039460098FFF7DAFE09B040
:10193000F0BD0000FFB589B0099815218507129FF9
:101940004902AD0F1E468F4222D1684600F0C8F909
:1019500001466A461571002050711278921CD2B26D
:10196000122A00D91222941C6B461C72250A5D7241
:1019700004269E72D87209251D735A739E73D873FC
:1019800004A8921EFEF7D0FE6B46241D5C71BCE0DD
:10199000674887423DD10B9807283AD165480078BF
:1019A000002836D06B461D7117211972002159721B
:1019B000042199720021D9720921072019735873E3
:1019C000082098730020D8730220187459740021DD
:1019D00099742921D9742A2119750A225A7500246B
:1019E0009C75D8750B251D7600255D7626259D7680
:1019F0000E22D9761A7700225A7798770F24DC774F
:101A000008AB1A702820587099701B206B465871CB
:101A10007BE0FF2E00D9FF2600247FE020460A212C
:101A2000484345490A5ABA4276D1411848880B9A28
:101A3000904271D3B0426FD83D4A521E974223D193
:101A40000A226E463272002272720423B372F2725C
:101A500009223273082272730A225443364AA218AA
:101A60009278B273000AF073002002AA0B181418BF
:101A7000401C1B79C0B223720528F7D3487A7075D1
:101A800035710E20707140E009226B461A720022F7
:101A90005A7204279F72DA7209221A7307225A7344
:101AA0000A2223465343244A9A1892786B469A7323
:101AB000000AD873002002AA0B181718401C1B79C3
:101AC000C0B23B720528F7D36B461D710D205871CB
:101AD000497AFF2912D0194B00200901C9180B5C63
:101AE0001418401CC0B2E3721028F8D31B206946BA
:101AF0004871172008721520487306E0641CE3B291
:101B0000324602A901A8FFF781FD02A90198FFF75B
:101B1000E8FD0DB0F0BDFFE7641CE4B2FEF73CFF4A
:101B2000A04200D97AE709AB07CBFFF7D5FDF0E774
:101B300003280000100000201C2E00009E2E000034
:101B4000F0B51F4AC3B21278102A0DD01D4D960071
:101B5000A9514035AB54521C194FD2B23A70102AD9
:101B60001AD8B9607860F0BD00242246154F950060
:101B7000EE1976687E513D464035AF187F78AF54F8
:101B8000521C3419D2B20F2AF0D39600403DA9510D
:101B90004035AB54621814090B4AA218914203D283
:101BA000074A91605060F0BD0648806B9042FAD2BF
:101BB000044940318A7B02494A608860F0BD0000D8
:101BC00094000020CC0400204227000010B50446F9
:101BD00000F050FE00F026FE084800F0A5F900F0E5
:101BE000E1F8207805494006C00F0839087003481D
:101BF0000622A11CC01FFEF797FD10BDC4000020E7
:101C000070B50D46124A01461078002809D0401ED2
:101C10001070002656705068092806D0401C50608D
:101C200005E001205070002070BD304656600C2247
:101C3000084B4243D41842018018074A80182A46AC
:101C40002060FEF771FD25712046A66070BD000082
:101C5000A0000020680600201C050020704700003E
:101C600010B5124C02290CD004DC002905D0012942
:101C700008D104E0802905D107E0608002E0E0801F
:101C800000E0A080FEF794FD10BD6088002804D01D
:101C9000401C80B2012100F00BF8A0880028F3D08E
:101CA000401C80B2012100F003F810BD100000209C
:101CB0001FB50A4A1CCA02930192039402226B4682
:101CC0001A7009225A705872000A9872D972080A5A
:101CD000187301A90098FFF704FD1FBD983000009C
:101CE0000721017000A070474D47313735310000A2
:101CF0000148406970470000180000200148007842
:101D000070470000A000002010B50446FFF7A2F9BC
:101D10000A4A002C0ED0518A0123891C89B2401C2A
:101D2000518240089382884206D2891E5182002047
:101D3000908201E000F092FD508A10BD4C0000201E
:101D4000024800214170C17070470000300000203F
:101D50007CB502210A20FEF7D5FD142069460871E2
:101D60000125044CAD020D802046FEF7D9FDE5604B
:101D70007CBD000000000140094A0020107211697A
:101D8000022051610870F920487000200B189870EB
:101D9000401CFF28FADB4878801C908170470000C7
:101DA0001800002000B50448002101720349416178
:101DB000FFF7C6FF00BD000018000020F40200205D
:101DC0000F2109050020401C8842FCD31020FFF79A
:101DD0004DF90520C003FFF7B5FB00F0CFFFFEE78C
:101DE00070B514460D460646FFF756FB22462946B7
:101DF0003046FFF7EDF9FFF749FB70BD70B50C46B3
:101E00000546FFF749FBFF212846FFF791FA2070AE
:101E1000FFF73CFB70BD08B56A4610705170032097
:101E200090700020D07004226946372000F001F83D
:101E300008BD70B515460E460446FFF72DFB402041
:101E400020432A463146FFF71DFAFFF71FFB70BDFE
:101E500070B50D460446FFF71FFB4020204329467E
:101E6000FFF766FAFFF712FB70BD002101E00918C9
:101E7000C9B2401EFBD2002901D0012070470020CA
:101E8000704700007CB50120694608700246352085
:101E9000FFF7CFFF0C4D0024204606214843295C64
:101EA0004319491ECAB2991C5878FFF7C2FF641C37
:101EB000E4B2152CF0D300206946087001223520C9
:101EC000FFF7B7FF7CBD0000782F00007CB5012034
:101ED0006946087002463520FFF7ABFF0C4D002421
:101EE000204606214843295C4319491ECAB2991C61
:101EF0005878FFF79EFF641CE4B2112CF0D3002049
:101F00006946087001223520FFF793FF7CBD000071
:101F1000F62F00000168002902D14068002801D096
:101F20000020704701207047002101604160024994
:101F30000A20087070470000A000002002681368A3
:101F400012790A70016889680160002900D1416036
:101F50001846704710B50B46044611461846FFF761
:101F60004FFE002806D06168002901D0886000E09B
:101F70002060606010BD00001CB5134B0220D861CA
:101F80007D200001FFF771FF0020D861062269461D
:101F90001420FFF725FF684600786628F6D16846CA
:101FA00040785528F2D1684680784428EED16846BA
:101FB000C0783328EAD1684600792228E6D16846FD
:101FC00040791128E2D11CBD00F0014010B5014656
:101FD0001C20FFF73DFF10BD004870473400002073
:101FE00010B51346002803D002221946112008E03C
:101FF000002903D0022219460F2002E002221946CE
:102000000D20FFF7EDFE10BD70B5144605464206E3
:102010004006400E002A1E4622460AD0FFF7E0FF87
:102020006278901C3070002A5DD0202A5BD8A11CF9
:1020300056E0FFF7D5FF6078801C3070207861781B
:102040000007000F2A0600D5FF20254608350300AB
:10205000FFF7A4FA06141C143025043B222942D1B0
:102060000622A11C1720FFF7BBFE062229461620D8
:10207000FFF7B6FE162221460E3131E00622A11CE2
:102080001620FFF7ADFE6078801F27E00622A11C16
:102090001620FFF7A5FE06222946172021E006227A
:1020A000A11C1820FFF79CFE60782946801FC2B251
:1020B000E32016E00622A11C1720FFF791FE6078AE
:1020C0002946801FC2B216200BE00622A11C162052
:1020D000FFF786FE6078801F202804DCC2B2294604
:1020E000E220FFF77DFE70BD38B504460322694645
:1020F0000B20FFF775FE684600780007000F207080
:1021000068464078607068468078A07038BD0000EE
:1021100038B50C460546042269463920FFF760FEB3
:102120006A46D078917800020143880111788906C7
:10213000890E01435078FFF703FD03484168296089
:1021400080682060012038BD94000020002806D05F
:10215000002007490A78824203D1064870470120CF
:10216000F7E78978814201D1034870470020704722
:1021700030000020F0000020F2010020FEB50446EF
:10218000002668460672032C00D9032484480860A0
:1021900005461C3D6978002935D1834B8149D961B9
:1021A00082490A78FF2A02D0002A1FD10FE04F7817
:1021B000FF2F1BD18F78FF2F18D1CF78FF2F15D18C
:1021C0000F79FF2F12D14F79FF2F0FD119E04F78E0
:1021D000002F0BD18F78002F08D1CF78002F05D199
:1021E0000F79002F02D14F79002F0AD002704A7860
:1021F00042708A788270CA78C2700A79027149790D
:1022000041716B48D86102A90A20FFF7F7FD00BFB2
:102210006846007AC028F6D1FFF7AEFE6049092073
:102220001C39FFF7EBFD00210846FFF711FE687926
:102230002321002800D163210020FFF709FE04219B
:102240002020FFF705FE6879002803D00021202018
:10225000FFF7FEFD0C21084600F005FAC82155489D
:1022600000F0CAF90A2000F034FA322000F0B4F984
:10227000402769460820FFF7C1FD684601783943C9
:1022800001700820FFF7E4FD02A90520FFF7B6FD65
:102290006846007AE3210840A1000143C9B26846BC
:1022A00001720520FFF7D4FD02A90820FFF7A6FD63
:1022B0006846007A41084900684601720820FFF725
:1022C000C7FDE979684601704670002904D00146CF
:1022D00002222820FFF7ADFD287851281ED80120C2
:1022E0006946087002463520FFF7A3FD324F0024EF
:1022F000204606214843395CC319491ECAB2991CBD
:102300005878FFF796FD641CE4B2172CF0D36846AA
:102310000670012269463520FFF78BFD2878522888
:1023200001D1FFF7AFFD2878532801D3FFF7CEFD89
:102330000A206946087001222F20FFF77AFD032248
:1023400069463220FFF74CFD2220694608708E70E6
:1023500003223220FFF76DFDA979082001433020C8
:10236000FFF759FD10213120FFF755FD062000F041
:1023700088F9FF20FFF72AFE2878512805D9012087
:1023800000F07FF9062000F0EFF900F0AFF900F05F
:10239000CFF90A490020401C8842FCDB2878FEBDAA
:1023A00034000020EDFECEFA00F00140DA7F00009C
:1023B000ED0EC0FA10270000EE2E0000A86100000C
:1023C00010B501461C20FFF719FD10BD7CB5022297
:1023D00001A91A20FFF704FD68460179880929D070
:1023E0001A20FFF735FD68460179404C080647D5AD
:1023F0004807400F694608703D4D0300FFF7CEF8CF
:10240000060404071A1B1B1AE430C0B210E0287837
:1024100003280CD10B20FFF7F1FC68460078C007B9
:10242000C00FFFF793FE20614078801CA081EB2055
:1024300000F0D2FC7CBD001F0870287803280BD167
:102440000B20FFF7DBFC68460078C00701D00020B6
:1024500000E00120694608702878022801D1A078A0
:102460000870E17820692022411868460078891CAC
:10247000E430C0B2FFF7DDFCE078223060817CBD43
:102480006A4650794007400F507109D0C906227939
:10249000616921D58918400109182022E32020E034
:1024A000022211206169FFF79BFC684600792179BF
:1024B000C006606903D541182022E32002E04118DC
:1024C0002022E220891CFFF78BFC20790028D6D03F
:1024D00006221620616904E08918400109182022AB
:1024E000E220891CFFF77CFC7CBD00001800002066
:1024F0004C00002038B50E4C054621696A46087824
:102500001070487850702846009900F087F8E178FC
:102510002069202241182846891C00F092F8E078B2
:102520002230608120694078801CA081012038BD64
:102530001800002010B5014604221920FFF779FC8D
:1025400010BD03B581B06A46117A1170517A51708D
:10255000002805D0022269460E20FFF76AFC0EBD56
:10256000022269460C20F8E710B500F06AF810BDA9
:1025700010B5014606221420FFF75BFC10BD10B514
:102580000446282807D2FEF787FF21464220FEF79F
:10259000CFFEFEF77BFF10BD10B5014603221B20C6
:1025A000FFF747FC10BD10B5014606221520FFF7C6
:1025B00040FC10BD10B5FEF78DF900F07DF810BDA0
:1025C00010B500210120FFF743FC10BD10B50146F6
:1025D0000B20FFF73DFC10BD08B5002100916946B6
:1025E000887003221A20FFF724FC08BD10B50146AD
:1025F0000120FFF72DFC10BD1CB500226B461A70A0
:102600005870020A9A70000CD8701971080A587133
:10261000062269460320FFF70CFC1CBD03B581B000
:102620006A46117A1170517A5170002803D0022243
:102630006946122002E0022269461020FFF7F9FBEA
:102640000EBD70B515460E460446FEF725FF002C5C
:102650002A46314601D0E52000E0E420FEF712FED4
:10266000FEF714FF70BD08B56A461170090A517073
:102670009070000AD070042269461046FFF7D9FB1B
:1026800008BD38B54407640F022269460120FFF7F0
:10269000A7FB6946487861000009000108436946C4
:1026A000487002220120FFF7C4FB38BD10B501219C
:1026B0000320FFF7CDFB10BD08B56A461070010A74
:1026C0005170000C9070032269461E20FFF7B1FB89
:1026D00008BD08B56A461070010A5170000C907070
:1026E000032269461F20FFF7A4FB08BD08B50F4869
:1026F0000078512819D969460720FFF77FFB684603
:1027000000784106490E684601700720FFF7A0FBDC
:10271000FF20F530FFF7A9FB6846017880200143D0
:10272000684601700720FFF793FB08BD18000020E2
:1027300008B569460720FFF761FB684601788020ED
:102740000143684601700720FFF782FB7D200001EE
:10275000FFF78BFB684600784106490E684601701A
:102760000720FFF775FB08BD38B50446022269460D
:102770000120FFF735FB6946487861010007000F2B
:1027800008436946487002220120FFF752FB38BD1A
:1027900008B5012269461046FFF722FB6946087812
:1027A000EF2108406946087001221046FFF741FBFF
:1027B00008BD000010B50949C87A401CC0B2C872F3
:1027C000052801D30020C8728869002805D0C97A7D
:1027D000282251430818FFF7EDFE10BD4C000020E1
:1027E00038B5054600230C4610460093FFF792FBD0
:1027F000002802D02B70237038BD69461046FFF7C1
:102800009DFB0146684602782846FDF78DFF684625
:102810000078207002480178491C017038BD000022
:10282000A000002002481B21017017214180704741
:1028300080000020084900224B78002B04D00B7840
:10284000834201D14A707047CB78002BFBD08B7844
:102850008342F8D1CA707047300000200449022832
:1028600001D2022000E003204882002088827047C5
:102870004C00002003480021426851718268517069
:1028800001807047B00000207047000000B587B09D
:10289000182209A16846FDF747FF0D480321017082
:1028A00018214170001F8088694608830698FEF74A
:1028B00059F807B000BD0000101000280001002CDE
:1028C000011820000300FFFFFFFFFFFFFFFFFFFFD6
:1028D000840000203EB500228C070E490092A40F10
:1028E00001920C7006244C7002236C4623706270B7
:1028F0000179A1704079E0700D2020711A2060717B
:1029000004486946001F808820810298FEF72AF853
:102910003EBD0000840000201FB508A007C86B461C
:1029200007C309480321017009214170001F8088F5
:10293000694688810398FEF715F81FBD092000003D
:102940000000000000000000840000207FB5044665
:1029500011486B4607C807C31048032101700921BD
:10296000417020796946487060798870A079C87094
:10297000E07908712078487160788871A078C87112
:10298000064DE07808722D1FA88888810398FDF70E
:10299000E9FF207828707FBDA4300000840000206B
:1029A0003EB500228C070D490092A40F01920C70D5
:1029B00006244C7002236C46237062700179A1706A
:1029C0004079E07005202071607104486946001F5D
:1029D000808820810298FDF7C5FF3EBD840000205D
:1029E000704700001CB509A109680091084903223D
:1029F0000A7002224A70694648700548001F8088A4
:102A000088800198FDF7AEFF1CBD000007000000A4
:102A1000840000200EB509A005C800908907094868
:102A2000890F0192017006214170001F808869465C
:102A300008810298FDF796FF0EBD00000C099C0569
:102A40001720000084000020014A10805180704748
:102A50007C00002030B5164B012299684A7002783C
:102A60000A7084784278240212194A800479C27864
:102A70002402121992B28A80857944792D02641950
:102A8000CC80057AC4792D0264190C81447A807A4D
:102A90000002201880B200244881052A00D24C7020
:102AA0001A88801A034A904200DB4C7030BD000047
:102AB000B0000020FF7F000010B50A4C034660689C
:102AC0000988C18005221946FDF72EFE60680121A4
:102AD0004171C1882288891A034A914201DB002191
:102AE000417110BDB0000020FF7F0000F8B50C461A
:102AF0000746002614E0142C01D9142500E02546D1
:102B0000FFF7FCF803280FD3084800950288BB198B
:102B10001B21022000F01EF87019C6B2601BC4B25F
:102B2000002C01D0002FE6D13046F8BD0200002075
:102B3000704708B502216A461170052151700121C4
:102B4000817019218171811C0098FEF7CAFDFFF781
:102B5000EFFF08BDFFB58BB0149C1D461746E61C61
:102B6000242101A8FDF7F9FD0B98132108406946BF
:102B70000870E01D48700E71300A48710420887199
:102B80000020C8710C9808724F72380A88720020B1
:102B900001A904E02A5C0B18401CDA71C0B2A04203
:102BA000F8D30098FEF79DFD0FB0F0BD7047F8B563
:102BB0000446827AC178007AE57900020543A0785C
:102BC00009020843401F87B2667A100206430220BA
:102BD00069460870607848701720A071A11C0098A1
:102BE000FEF77FFD214633463A460B312846FFF774
:102BF000DDFFF8BD70B5049C1E460546152A02D0BF
:102C0000182A05D107E021461846FFF76FFF28462E
:102C100000F008F870BD00F005F821463046FEF7D8
:102C200033FA70BD0EB507A106C980070091800F69
:102C3000019269460872052048720298FEF751FD1C
:102C40000EBD0000010004001300000070470000EA
:102C5000FEB50546062016460C460F2927D006DC91
:102C6000042C0ED0092C0FD00B2C04D114E0132C03
:102C700021D0192C25D00A4629463046FEF72CFDD6
:102C8000FEBD14A300901EE0FEF71CF8FDF770FDDA
:102C9000C7B2FEF717F806E0FDF780FEFDF768FD06
:102CA000C7B2FDF77BFE0346224600970CE00720E3
:102CB0000AA3009007E000200190022001AB0090E1
:102CC00001E008A300900A4629463046FEF786FD3B
:102CD000FEBD00004D473137353100005356322ECE
:102CE000302E31006D67204F5441000010B5084B65
:102CF0004200D4186478002C09D099541A46183A26
:102D0000002801D0034800E003481061917010BD15
:102D100030000020F2010020F000002000B511A0DA
:102D20000FC88DB0099306AB07C312A003C80B915F
:102D30000A9000206A46507106A802900F209071F8
:102D40000AA803900720D071A020009001201071E4
:102D5000AA211174BB21517490751046FDF7C8FF6C
:102D60000DB000BD0201060C094D47313735312D3C
:102D70004F54410006FF9C050102030008B5FEF711
:102D8000E7FFE1204002FEF7A9FB69460320FDF7BB
:102D90009DFF0020FEF770F90220FEF76DF901207B
:102DA000FEF764F90420FEF761F9FFF7B7FFFEF7BD
:102DB00063FBFCE7064901200B788002054A002BE3
:102DC00002D09060002001E0D060012008707047C0
:102DD000000000200000014010B50C4CA18963895F
:102DE000C91A89B2202900D92021CAB22169C9187B
:102DF000FFF71FF86089203080B26081A189884286
:102E000002D3E078801C608110BD00001800002013
:102E100001490880704700007C0000200028010064
:102E200000000000000003280300020400002AFF45
:102E30000028070000000000000003280800020925
:102E400000292AFF03280A00020B00262AFF032874
:102E50000E00020F00282AFF0028100000000000CA
:102E60000000032811001A120000000102291300BB
:102E70000A0000000000032814000A1500000002E8
:102E800000281600000000000000032817000818A2
:102E900000000004012919000200000000009ECA81
:102EA000DC240EE5A9E093F3A3B50100406E9ECAB1
:102EB000DC240EE5A9E093F3A3B50300406E9ECA9F
:102EC000DC240EE5A9E093F3A3B50200406E1019CF
:102ED0000D0C0B0A0908070605040302010013196B
:102EE0000D0C0B0A0908070605040302010005374B
:102EF000B11803550537C44203550537B0030355D0
:102F00000437008000000231100000000231000090
:102F1000000004370090000002310200000002317E
:102F20000000000004370080000002314000000073
:102F3000033100100000043700F00000033202806B
:102F40000000033202000000043700D00000032A12
:102F50000E020000032A0E000000022B0E000000EB
:102F60000422301300000524C0112D0102210200AB
:102F70000000053F00009F0F0537C4420355053789
:102F8000B00303550537D01503550537C3800355E6
:102F90000437004000000231100000000231000040
:102FA0000000043700380000023102000000023146
:102FB00000000000043700A000000332028000007F
:102FC000043202000000043700E00000032A0E0271
:102FD0000000032A0E000000022B0E000000042255
:102FE000301300000524C0112D0202210200000050
:102FF000053F00009F0F0537C44203550537B00356
:1030000003550537B12803550537D01B0355043741
:1030100000780000023102000000023100000000D0
:10302000043700A0000003320280000004320200D6
:103030000000043700900000032A0E020000032A5B
:103040000E000000022B0E000000042242130000BC
:10305000053F00009F0F0524C0112D0246565F4218
:10306000545F56355F312E302E31334E704F7461C0
:1030700000000000030004000A000000000000003F
:103080000500040004000000000000000700040028
:10309000080000000000000005000400120000000D
:1030A000000000001500000000000000000000000B
:1030B000140000000000000000000000EC300000E0
:1030C00000000020F0000000B6150000DC31000018
:1030D0000016002084000000B6150000DC3100005E
:1030E000F0000020000A0000C615000000001200D9
:1030F000000000000070004004700040000000006C
:103100000000000000000000000000A4000000001B
:1031100000000000F201002000000000000000009C
:1031200001020304050600000000000000465620CE
:10313000202E352E302E30000000010000FFAA00A6
:10314000000000000000000000000000000000007F
:10315000000000002941767100000000000000001E
:103160000618BC3A152C0100000000001B001700D7
:10317000000000000000000000000000000000004F
:10318000000000000B000000011905000A0000000B
:10319000000000000000000000000000000000002F
:1031A000A8000020E0060020000000000000000051
:1031B0000000000000000000FF0000000000000010
:1031C00000000000000000000000000000000000FF
:1031D000000000000000000000000000F0B58C4678
:1031E0000143890701D00120F0BD1A490D68296803
:1031F0004908490029600024174917E0D6789778D4
:10320000360237433E025778144B374316783F0255
:103210003E438E6086081F06F6190E60121D5B1E67
:1032200002D34E68032EFAD1001D241D6445E5D358
:103230000820084928600C202860C820496800E060
:10324000401E0A68D20601D40028F9D10D2028605A
:103250000020F0BD0800002000000460404B4C003E
:04000005000006C130
:00000001FF
